S0150000544553545F30355F4D4F544F522E737265631B
S113000045C0000053C0000051C000004FC00000B4
S11300104DC000004CC0000065C000008EC0000050
S113002045C0000043C0000041C000003FC00000C4
S11300303DC000003BC0000039C0000037C00000D4
S113004035C0000033C0000031C000002FC00000E4
S11300502DC000002BC0000029C0000027C00000F4
S113006025C0000023C0000021C000001FC0000004
S11300701DC000001BC0000019C0000017C0000014
S113008015C0000013C0000011C0000011241FBEE1
S1130090CFEFD0E1DEBFCDBF21E0A0E0B1E001C0F1
S11300A01D92A230B207E1F77ED090C0A9CF1F9273
S11300B00F920FB60F9211248F939F93F8949091FF
S11300C0010181E0892780930101882311F0C59AF9
S11300D001C0C59878949F918F910F900FBE0F9097
S11300E01F9018951F920F920FB60F9211248F93A1
S11300F09F93F8949091000181E0892780930001F7
S1130100882329F082B38F7C82BB959A04C082B382
S11301108F7C82BB949A78949F918F910F900FBE9D
S11301200F901F9018951092010110920001C5982C
S113013082B38F7C82BB949A08951F920F920FB65C
S11301400F9211240BB60F922F933F934F935F930B
S11301506F937F938F939F93AF93BF93EF93FF938B
S1130160F89492B380E1892782BB23EB80E09DE27F
S1130170215080409040E1F700C00000D4DF789423
S1130180FF91EF91BF91AF919F918F917F916F916B
S11301905F914F913F912F910F900BBE0F900FBE27
S11301A00F901F90189582B18F7082B981B38063CC
S11301B081BBBD9A8AB78F638ABF88B7806788BFBF
S11301C089B7806789BF7894AEDFFFCFF894FFCFFB
S9030000FC
