S01D000045585F30375F55415254305F52585F54585F494E542E737265637B
S113000045C0000060C000005EC000005CC000008D
S11300105AC0000058C0000056C0000054C0000080
S113002052C0000050C000004EC000004CC0000090
S11300304AC0000048C0000046C0000044C00000A0
S113004042C0000040C0000067C000003CC0000087
S11300503AC0000038C0000036C0000034C00000C0
S113006032C0000030C000002EC000002CC00000D0
S11300702AC0000028C0000026C0000024C00000E0
S113008022C0000020C000001EC0000011241FBEBA
S1130090CFEFD0E1DEBFCDBF11E0A0E0B1E0E6E5F7
S11300A0F2E000E00BBF02C007900D92AE34B1073E
S11300B0D9F721E0AEE4B1E001C01D92A53BB2073F
S11300C0E1F774D0C6C09CCFCF93DF93EC0160E01E
S11300D071E0ACD0892B41F485B3816085BB10926B
S11300E0500110924F0115C067E071E0CE019ED01F
S11300F0892B41F485B38E7F85BB109250011092F9
S11301004F0107C08FE091E07CD010925001109213
S11301104F01DF91CF9108951F920F920FB60F9266
S113012011240BB60F922F933F934F935F936F93CA
S11301307F938F939F93AF93BF93EF93FF93F89421
S11301408CB18D3021F0E0914E01E33679F4E091E9
S11301504E01F0E0EF5AFE4F108210924E0181E5FD
S113016091E0B2DF81E591E04CD008C091E09E0FB0
S113017090934E01F0E0EF5AFE4F80837894FF9104
S1130180EF91BF91AF919F918F917F916F915F910B
S11301904F913F912F910F900BBE0F900FBE0F9078
S11301A01F90189584B3816084BB0895FBDF14D03D
S11301B08AB180688AB9789480914F0190915001F6
S11301C0892BD1F78AE291E01CD081E090E09093F2
S11301D0500180934F01F0CF1092900087E089B9CD
S11301E01BB88AB188618AB9E5E9F0E08081877833
S11301F0808380818660808308955D9BFECF8CB967
S113020008950F931F93CF93DF938C01C0E0D0E048
S113021002C0F3DF2196F801EC0FFD1F80818111EC
S1130220F8CFDF91CF911F910F910895FB01DC016D
S11302308D9181341CF08B350CF4805E61916134B6
S11302401CF06B350CF4605E861B611189F3990B0D
S10902500895F894FFCFAD
S11302564C45445F4F4E004C45445F4F4646005460
S113026648455245204953204E4F20434F4D4D415A
S11302764E4420464F52203A20000A0DEBAA85EB45
S1130286A0B9EC96B4EBA5BC20EC9E85EBA0A5ED3D
S11102969598EC84B8EC9A942E203A2000003F
S9030000FC
