S01B000045585F30345F54494D45525F4C45445F494E542E737265634B
S113000045C0000053C0000051C000004FC00000B4
S11300104DC000004BC0000049C0000047C00000B4
S113002045C0000089C0000041C000003FC000007E
S11300303DC000003BC0000039C0000057C00000B4
S113004036C0000033C0000031C000002FC00000E3
S11300502DC000002BC0000029C0000027C00000F4
S113006025C0000023C0000021C000001FC0000004
S11300701DC000001BC0000019C0000017C0000014
S113008015C0000013C0000011C0000011241FBEE1
S1130090CFEFD0E1DEBFCDBF21E0A0E0B1E001C0F1
S11300A01D92A230B207E1F765D087C0A9CF1F9295
S11300B00F920FB60F9211248F939F93F89480E7B9
S11300C082BF809101018F5F80930101843631F4F6
S11300D095B381E0892785BB1092010178949F91A3
S11300E08F910F900FBE0F901F9018951F920F9233
S11300F00FB60F9211248F93F89412BE80910101D0
S11301008F5F80930101823020F485B3816085BBC9
S113011006C08250883018F485B38E7F85BB8091E9
S11301200101893011F41092010178948F910F909C
S11301300FBE0F901F9018951F920F920FB60F923B
S113014011248F939F93F89414BC809100018F5FC6
S113015080930001823331F495B382E0892785BB13
S11301601092000178949F918F910F900FBE0F9081
S11301701F90189584B38F6084BB85B38F6085BB53
S113018083B7876083BF12BE8AE081BF87B782606E
S113019087BF86B7826086BF85B5856085BD85B516
S11301A08D7F85BD14BC8FE883BD87B7806887BF0A
S11101B086B7806886BF7894FFCFF894FFCF9F
S9030000FC
