S016000045585F30335F53575F45585449542E73726563B9
S113000045C0000053C0000051C000004FC00000B4
S11300104DC000004CC0000062C0000047C000009A
S113002045C0000043C0000041C000003FC00000C4
S11300303DC000003BC0000039C0000037C00000D4
S113004035C0000033C0000031C000002FC00000E4
S11300502DC000002BC0000029C0000027C00000F4
S113006025C0000023C0000021C000001FC0000004
S11300701DC000001BC0000019C0000017C0000014
S113008015C0000013C0000011C0000011241FBEE1
S1130090CFEFD0E1DEBFCDBF21E0A0E0B1E001C0F1
S11300A01D92A230B207E1F732D067C0A9CF1F92E8
S11300B00F920FB60F9211248F93F894809101013F
S11300C0811104C081E08093010102C010920101FA
S11300D078948F910F900FBE0F901F9018951F92D8
S11300E00F920FB60F9211248F93F8948091000110
S11300F0811104C081E08093000102C010920001CC
S113010078948F910F900FBE0F901F90189582B125
S11301108F7C82B984B38F6084BB85B3807F85BBB9
S11301208AB78F608ABF88B7806388BF89B78063C6
S113013089BF789491E022E080910101882319F02D
S113014085B3892785BB3FEF4FE78DE031504040B1
S11301508040E1F700C0000080910001882319F07D
S113016085B3822785BB3FEF4FE786E1315040409E
S11101708040E1F700C00000DFCFF894FFCF1D
S9030000FC
