S01C0000544553545F30355F53575F4D4F544F525F494E542E73726563C1
S113000045C000004BC0000049C0000047C00000CC
S113001045C0000048C00000A1C00000CAC00000E4
S11300203DC000003BC0000039C0000037C00000E4
S113003035C0000033C0000031C000002FC00000F4
S11300402DC000002BC0000029C0000027C0000004
S113005025C0000023C0000021C000001FC0000014
S11300601DC000001BC0000019C0000017C0000024
S113007015C0000013C0000011C000000FC0000034
S11300800DC000000BC0000009C0000011241FBEF9
S1130090CFEFD0E1DEBFCDBF43D0B6C0B1CFC59A5C
S11300A09598949A08951F920F920FB60F92112467
S11300B00BB60F922F933F934F935F936F937F935E
S11300C08F939F93AF93BF93EF93FF93F894E7DFDE
S11300D07894FF91EF91BF91AF919F918F917F9110
S11300E06F915F914F913F912F910F900BBE0F90A5
S11300F00FBE0F901F90189582B18F7882B981B38B
S1130100806381BBBD9A08958AB78F638ABF88B71D
S1130110806788BF089589B7806789BF78940895F8
S1130120EBDFF2DFF8DFFFCF8130910551F01CF4F3
S1130130892B79F008958230910521F0039731F0ED
S11301400895ADCFC59A9498959A089582B3806323
S113015003C0C59882B38F7C82BB08951F920F920F
S11301600FB60F9211240BB60F922F933F934F9318
S11301705F936F937F938F939F93AF93BF93EF930B
S1130180FF93F89482E090E0CFDF7894FF91EF91B1
S1130190BF91AF919F918F917F916F915F914F919B
S11301A03F912F910F900BBE0F900FBE0F901F9099
S11301B018951F920F920FB60F9211240BB60F923F
S11301C02F933F934F935F936F937F938F939F935B
S11301D0AF93BF93EF93FF93F89480E090E0A4DF94
S11301E07894FF91EF91BF91AF919F918F917F91FF
S11301F06F915F914F913F912F910F900BBE0F9094
S10F02000FBE0F901F901895F894FFCFCC
S9030000FC
