S018000045585F30365F554152545F68656C6C6F2E737265639C
S113000045C0000058C0000056C0000054C00000A5
S113001052C0000050C000004EC000004CC00000A0
S11300204AC0000048C0000046C0000044C00000B0
S113003042C0000040C000003EC000003CC00000C0
S11300403AC0000038C0000036C0000034C00000D0
S113005032C0000030C000002EC000002CC00000E0
S11300602AC0000028C0000026C0000024C00000F0
S113007022C0000020C000001EC000001CC0000000
S11300801AC0000018C0000016C0000011241FBED2
S1130090CFEFD0E1DEBFCDBF11E0A0E0B1E0E0E7FB
S11300A0F1E000E00BBF02C007900D92A833B10746
S11300B0D9F730D05BC0A4CF5D9BFECF8CB9089537
S11300C05F9BFECF8CB108950F931F93CF93DF9363
S11300D08C01C0E0D0E002C02196EEDFF801EC0F05
S11300E0FD1F80818111F8CFDF91CF911F910F9176
S11300F008951BB88AB188618AB9E5E9F0E0808186
S1130100827880838081866080831092900087E06B
S113011089B90895CF93DF93CDB7DEB7E7970FB6CC
S1130120F894DEBF0FBECDBF8EE2E0E0F1E0DE0169
S1130130119601900D928A95E1F789E0EEE2F1E0E3
S1130140DE019F9601900D928A95E1F782B18E7F30
S113015082B982B1826082B9CCDFCE010196B4DF6C
S1130160CE018F96B1DFACDFA7DFFDCFF894FFCFD0
S11301700D0A57656C636F6D652120656467656959
S11301804C41420D0A2055534152542030205465AD
S113019073742050726F6772616D2E0D0A004543AF
S10B01A0484F203E3E20000000
S9030000FC
