S014000045585F30355F54494D4552302E737265639F
S113000045C0000060C000005EC000005CC000008D
S11300105AC0000081C000009BC0000054C0000012
S113002052C0000050C000004EC000004CC0000090
S11300304AC0000048C0000046C0000059C000008B
S113004043C0000040C000003EC000003CC00000AF
S11300503AC0000038C0000036C0000034C00000C0
S113006032C0000030C000002EC000002CC00000D0
S11300702AC0000028C0000026C0000024C00000E0
S113008022C0000020C000001EC0000011241FBEBA
S1130090CFEFD0E1DEBFCDBF11E0A0E0B1E0E8EDED
S11300A0F1E000E00BBF02C007900D92A230B1074F
S11300B0D9F721E0A2E0B1E001C01D92A230B2075D
S11300C0E1F761D087C09CCF1F920F920FB60F92B9
S11300D011248F93F89485B38E7F85BB85B382609A
S11300E085BB78948F910F900FBE0F901F90189539
S11300F01F920F920FB60F9211248F93F89485B329
S1130100816085BB85B38D7F85BB78948F910F907B
S11301100FBE0F901F9018951F920F920FB60F925B
S113012011248F93F89480910001863E20F08FEF84
S11301308093000103C0875E8093000180910001D9
S113014081BF78948F910F900FBE0F901F901895D8
S11301501F920F920FB60F9211248F93F8948091EF
S113016000018A3118F41092000103C08951809370
S113017000018091000181BF78948F910F900FBE90
S11301800F901F90189584B38F6084BB82B18F7CCD
S113019082B98AB78F608ABF89B7806389BF88B7FD
S11301A0806388BF83B78E7F83BF83B7866083BF36
S11301B012BE8091000181BF87B7816087BF87B776
S11301C0826087BF86B7816086BF86B7826086BF3C
S10B01D07894FFCFF894FFCFEF
S10501D88000A1
S9030000FC
