S010000043485F32325F30342E7372656303
S113000045C0000058C0000056C0000054C00000A5
S113001052C0000050C000004EC000004CC00000A0
S11300204AC0000048C0000046C0000044C00000B0
S113003042C0000040C000003EC000003CC00000C0
S11300403AC0000038C0000036C0000034C00000D0
S113005032C0000030C000002EC000002CC00000E0
S11300602AC0000028C0000026C0000024C00000F0
S113007022C0000020C000001EC000001CC0000000
S11300801AC0000018C0000016C0000011241FBED2
S1130090CFEFD0E1DEBFCDBF11E0A0E0B1E0E6E5F7
S11300A0F2E000E00BBF02C007900D92AC30B10744
S11300B0D9F702D0CEC0A4CF7ED081E091E0AAD0FF
S11300C02FEF83ED90E3215080409040E1F700C092
S11300D0000068D060E080E0B2D081E323D065E026
S11300E080E0ADD082E31ED060E081E0A8D083E35D
S11300F019D065E081E0A3D084E314D0FFCFE5E616
S1130100F0E080818460808385E08A95F1F70000C7
S113011080818B7F80838FE99FE00197F1F700C096
S113012000000895CF93C82FE5E6F0E08081826057
S1130130808380910001883019F4C5BBE0DF0AC0D8
S11301408C2F807F85BBDBDF20E1C29FC00111249F
S113015085BBD5DF8FE39FE10197F1F700C0000075
S1130160CF910895CF93C82FE5E6F0E080818D7F8D
S1130170808380910001883019F4C5BBC0DF0AC0B8
S11301808C2F807F85BBBBDF20E1C29FC00111247F
S113019085BBB5DF8FE39FE10197F1F700C0000055
S11301A0CF91089581E0DEDF8FE39FE10197F1F7BE
S11301B000C0000008952FEF80E792E021508040B6
S11301C09040E1F700C0000080910001883019F4EC
S11301D08FEF84BB03C084B3806F84BB15BAE4E69D
S11301E0F0E0808187608083E5E6F0E080818E7FA7
S11301F0808380910001883019F488E3B3DF04C060
S113020082E0B0DF88E2AEDF8FE0ACDFCBDF86E0F8
S1130210A9CF08950F931F93CF93FC018081882366
S113022051F08F01C0E07EDFCF5FF801EC0FF11DCC
S113023080818111F8CFCF911F910F910895817022
S11302406F7090E4899F600D1124862F80588ACFA7
S10902500895F894FFCFAD
S10F02560448656C6C6F204C434421008C
S9030000FC
